:1000000055C000006EC000006CC000006AC0000057
:1000100068C0000066C0000064C0000062C000004C
:1000200060C000005EC000005CC000005AC000005C
:1000300058C0000056C0000054C0000052C000006C
:1000400050C000004EC000004CC000004AC000007C
:1000500048C0000046C0000044C0000042C000008C
:1000600040C00000ACC000003CC00000F9C000006F
:1000700038C0000036C0000034C0000032C00000AC
:1000800030C000002EC000002CC000002AC00000BC
:1000900028C0000026C0000024C0000022C00000CC
:1000A00020C000001EC000001CC0000011241FBEA4
:1000B000CFEFDAE0DEBFCDBF11E0A0E0B1E0EEEBC4
:1000C000F9E002C005900D92A830B107D9F715E00C
:1000D000A8E0B1E001C01D92A435B107E1F723D03B
:1000E0006CC48ECF90917C008770892B80937C00AC
:1000F00080917A00806480937A0080917A0084FFF6
:10010000FCCF80917A00806180937A002091780002
:1001100030917900C901089580E480937C0087E8DC
:1001200080937A00DFC0A0E0B0E0E8E9F0E07CC1B5
:100130008091E200867F8093E200EEDFC8E0D1E0AC
:1001400090E4C92ED12C80E0E82E81E0F82E00E961
:1001500011E080E0C7DFBC018DB79EB70A970FB6EC
:10016000F8949EBF0FBE8DBFEDB7FEB73196ADB709
:10017000BEB71296DC93CE931197D382C282F582DA
:10018000E482778366836350704083E89AE12ED1DE
:10019000645070407187608759D18DB79EB70A96B9
:1001A0000FB6F8949EBF0FBE8DBFCE01D1D080E1B7
:1001B00097E2F8013197F1F70197D9F7CACF1F926B
:1001C0000F920FB60F9211248F939F93EF93FF938B
:1001D000E0914E05F0914F0580915305E80FF11D18
:1001E0009091CE0090838F5F80935305809153054B
:1001F00080935305809150059091510501969093FD
:10020000510580935005E0914E05F0914F05809186
:100210005205E80FF11DE0818F5F80935205E235B2
:1002200049F0E33518F4E73471F409C0E73639F0E2
:10023000E23749F485B191E0892785B904C08BB1D3
:1002400090E289278BB98091520580935205FF91E6
:10025000EF919F918F910F900FBE0F901F90189567
:100260001F920F920FB60F9211248F939F93EF93CB
:10027000FF9388B1805888B980914A0590914B05C9
:10028000892BF9F08091C80085FF1BC0E0914805DB
:10029000F091490580914C05E80FF11D90818F5F29
:1002A00080934C059093CE0080914A0590914B0528
:1002B000019790934B0580934A0580914C0580935C
:1002C0004C05FF91EF919F918F910F900FBE0F9072
:1002D0001F901895FB0191838083148215821382ED
:1002E0001282089588E491E090934905809348052F
:1002F00010924C0510924D0510924B0510924A0534
:1003000088E493E090934F0580934E051092520538
:1003100010925305109251051092500580E190E023
:100320009093CD008093CC00EAECF0E08081866071
:100330008083E9ECF0E08081806880838081806444
:10034000808380818061808380818860808308953C
:10035000DC01F89480914A0590914B0502968150FA
:100360009240E0F08FEF0895E0914805F091490543
:1003700080914D05E80FF11D90838F5F80934D05AF
:10038000119680914A0590914B05019690934B05EB
:1003900080934A0580914D0580934D059C9199234A
:1003A00019F78091C80085FF1BC0E0914805F091C6
:1003B000490580914C05E80FF11D90818F5F809376
:1003C0004C059093CE0080914A0590914B05019782
:1003D00090934B0580934A0580914C0580934C0582
:1003E000789480E008958093CE000895AA1BBB1BEB
:1003F00051E107C0AA1FBB1FA617B70710F0A61B25
:10040000B70B881F991F5A95A9F780959095BC0145
:10041000CD0108952F923F924F925F926F927F92FB
:100420008F929F92AF92BF92CF92DF92EF92FF9204
:100430000F931F93CF93DF93CDB7DEB7CA1BDB0BB0
:100440000FB6F894DEBF0FBECDBF0994AEE0B0E0AA
:10045000EBE2F2E0EDCF0D891E898F89988D97FF31
:1004600002C080E090E801979E838D831A83098300
:1004700086E08C839E01255E3F4FCE010196698DFB
:100480007A8DA90111D04D815E8157FD0AC02F815F
:100490003885421753070CF49A01020F131FF80115
:1004A00010822E96E4E07CC2ABE0B0E0E9E5F2E039
:1004B000B1CF3C012B015A01FC01178216828381C6
:1004C00081FD03C06FEF7FEFB9C19AE0892E1E0155
:1004D0000894211C311CF3012381F20123FD859135
:1004E00023FF81912F01882309F4A5C1853239F4B6
:1004F00023FD859123FF81912F01853221F490E026
:10050000B301B6D1E8CF982FFF24EE249924FFE160
:10051000FF15D0F09B3269F09C3228F4903259F0EC
:10052000933291F40EC09D3249F0903369F441E06A
:1005300024C052E0F52A84E0F82A28C098E0F92A7D
:1005400025C0E0E1FE2A22C0F7FC29C0892F805394
:100550008A3070F4F6FE05C0989C902C1124980EF9
:1005600015C0E89CE02C1124E80EF0E2FF2A0EC032
:100570009E3229F4F6FC5FC140E4F42A07C09C36A1
:1005800019F450E8F52A02C0983649F4F20123FD27
:10059000959123FF91912F01992309F0B8CF892FCD
:1005A0008554833018F08052833038F444E050E0B2
:1005B000A40EB51E5FE359830FC0933631F0933715
:1005C00079F0933509F052C01FC0F501808189830D
:1005D00042E050E0A40EB51E610101E010E011C040
:1005E000F501C080D180F6FC03C06FEF7FEF02C041
:1005F000692D70E042E050E0A40EB51EC6012DD179
:100600008C015FE7F52213C0F501C080D180F6FCB4
:1006100003C06FEF7FEF02C0692D70E042E050E051
:10062000A40EB51EC6010ED18C0150E8F52AF3FECA
:1006300006C018C080E290E0B3011AD1EA948E2D72
:1006400090E008171907B0F30DC0F601F7FC85918B
:10065000F7FE81916F0190E0B3010AD1E110EA94B5
:10066000015010400115110581F7E2C0943611F0D8
:10067000993661F5F7FE08C0F5012081318142818C
:10068000538184E090E00AC0F501808191819C0152
:10069000442737FD4095542F82E090E0A80EB91E04
:1006A0009FE6F92257FF09C0509540953095219556
:1006B0003F4F4F4F5F4FE0E8FE2ACA01B901A10149
:1006C0002AE030E001D1D82ED2183FC0953729F466
:1006D0001F2D1F7E2AE030E01DC01F2D197F9F3681
:1006E00061F0903720F4983509F0A5C00FC090371D
:1006F00039F0983709F09FC004C028E030E00AC004
:10070000106114FD146020E130E004C014FD166097
:1007100020E132E017FF08C0F5016081718182811C
:10072000938144E050E008C0F50180819181BC01D3
:1007300080E090E042E050E0A40EB51EA101C4D0DC
:10074000D82ED2188FE7F82EF122F6FE0BC05EEFFE
:10075000F522D91438F4F4FE07C0F2FC05C08FEE80
:10076000F82202C01D2D01C0192DF4FE0DC0FE019E
:10077000ED0DF11D8081803319F499EEF92208C046
:100780001F5FF2FE05C003C08F2D867809F01F5F42
:100790000F2DF3FC13C0F0FE0EC01E1510F09D2CA3
:1007A0000AC09D2C9E0C911A1E2D05C080E290E07F
:1007B000B3015ED01F5F1E15C8F304C01E1510F4F0
:1007C000E11A01C0EE2404FF0EC080E390E0B30103
:1007D0004FD002FF1BC001FD03C088E790E00EC0B0
:1007E00088E590E00BC0802F867881F001FF02C081
:1007F0008BE201C080E2F7FC8DE290E0B30138D0DB
:1008000005C080E390E0B30133D09A94D914C8F3C3
:10081000DA94F101ED0DF11D808190E0B30128D053
:10082000DD20B1F705C080E290E0B30121D0EA9469
:10083000EE20C9F750CEF30166817781CB012B966C
:10084000E2E1A0C0FC010590615070400110D8F7B2
:10085000809590958E0F9F1F0895FC016150704008
:1008600001900110D8F7809590958E0F9F1F0895E5
:100870000F931F93CF93DF938C01EB018B8181FF4B
:100880001BC082FF0DC02E813F818C819D81281766
:10089000390764F4E881F9810193F983E88306C09C
:1008A000E885F985802F0995892B31F48E819F8108
:1008B00001969F838E8302C00FEF1FEFC801DF9167
:1008C000CF911F910F910895FA01AA27283051F175
:1008D000203181F1E8946F936E7F6E5F7F4F8F4F71
:1008E0009F4FAF4FB1E03ED0B4E03CD0670F781FD0
:1008F000891F9A1FA11D680F791F8A1F911DA11DB5
:100900006A0F711D811D911DA11D20D009F46894ED
:100910003F912AE0269F11243019305D3193DEF695
:10092000CF010895462F4770405D4193B3E00FD04B
:10093000C9F7F6CF462F4F70405D4A3318F0495D36
:1009400031FD4052419302D0A9F7EACFB4E0A69519
:100950009795879577956795BA95C9F7009761053B
:10096000710508959B01AC010A2E06945795479591
:1009700037952795BA95C9F7620F731F841F951F86
:10098000A01D08952A88398848885F846E847D84F4
:100990008C849B84AA84B984C884DF80EE80FD8027
:1009A0000C811B81AA81B981CE0FD11D0FB6F8949D
:0E09B000DEBF0FBECDBFED010895F894FFCF5E
:0809BE0025750925750D0A00DD
:00000001FF
